{
  "_format": "hh-sol-artifact-1",
  "contractName": "Certificate",
  "sourceName": "contracts/Certificate.sol",
  "abi": [
    {
      "anonymous": false,
      "inputs": [
        {
          "indexed": true,
          "internalType": "uint256",
          "name": "id",
          "type": "uint256"
        },
        {
          "indexed": false,
          "internalType": "string",
          "name": "recipientName",
          "type": "string"
        },
        {
          "indexed": false,
          "internalType": "string",
          "name": "courseName",
          "type": "string"
        },
        {
          "indexed": false,
          "internalType": "string",
          "name": "ipfsHash",
          "type": "string"
        }
      ],
      "name": "CertificateIssued",
      "type": "event"
    },
    {
      "inputs": [],
      "name": "certificateCount",
      "outputs": [
        {
          "internalType": "uint256",
          "name": "",
          "type": "uint256"
        }
      ],
      "stateMutability": "view",
      "type": "function"
    },
    {
      "inputs": [
        {
          "internalType": "uint256",
          "name": "_id",
          "type": "uint256"
        }
      ],
      "name": "getCertificate",
      "outputs": [
        {
          "internalType": "uint256",
          "name": "",
          "type": "uint256"
        },
        {
          "internalType": "string",
          "name": "",
          "type": "string"
        },
        {
          "internalType": "string",
          "name": "",
          "type": "string"
        },
        {
          "internalType": "string",
          "name": "",
          "type": "string"
        },
        {
          "internalType": "uint256",
          "name": "",
          "type": "uint256"
        },
        {
          "internalType": "string",
          "name": "",
          "type": "string"
        }
      ],
      "stateMutability": "view",
      "type": "function"
    },
    {
      "inputs": [
        {
          "internalType": "string",
          "name": "_recipientName",
          "type": "string"
        },
        {
          "internalType": "string",
          "name": "_courseName",
          "type": "string"
        },
        {
          "internalType": "string",
          "name": "_issuedBy",
          "type": "string"
        },
        {
          "internalType": "string",
          "name": "_ipfsHash",
          "type": "string"
        }
      ],
      "name": "issueCertificate",
      "outputs": [],
      "stateMutability": "nonpayable",
      "type": "function"
    }
  ],
  "bytecode": "0x6080604052348015600f57600080fd5b50610cd38061001f6000396000f3fe608060405234801561001057600080fd5b50600436106100415760003560e01c806351640fee1461004657806352d7b89c1461007b578063818a299414610099575b600080fd5b610060600480360381019061005b9190610520565b6100b5565b604051610072969594939291906105ec565b60405180910390f35b6100836103c2565b6040516100909190610669565b60405180910390f35b6100b360048036038101906100ae91906107b9565b6103c8565b005b60006060806060600060606000871180156100d257506001548711155b610111576040517f08c379a0000000000000000000000000000000000000000000000000000000008152600401610108906108dc565b60405180910390fd5b60008060008981526020019081526020016000206040518060c00160405290816000820154815260200160018201805461014a9061092b565b80601f01602080910402602001604051908101604052809291908181526020018280546101769061092b565b80156101c35780601f10610198576101008083540402835291602001916101c3565b820191906000526020600020905b8154815290600101906020018083116101a657829003601f168201915b505050505081526020016002820180546101dc9061092b565b80601f01602080910402602001604051908101604052809291908181526020018280546102089061092b565b80156102555780601f1061022a57610100808354040283529160200191610255565b820191906000526020600020905b81548152906001019060200180831161023857829003601f168201915b5050505050815260200160038201805461026e9061092b565b80601f016020809104026020016040519081016040528092919081815260200182805461029a9061092b565b80156102e75780601f106102bc576101008083540402835291602001916102e7565b820191906000526020600020905b8154815290600101906020018083116102ca57829003601f168201915b505050505081526020016004820154815260200160058201805461030a9061092b565b80601f01602080910402602001604051908101604052809291908181526020018280546103369061092b565b80156103835780601f1061035857610100808354040283529160200191610383565b820191906000526020600020905b81548152906001019060200180831161036657829003601f168201915b5050505050815250509050806000015181602001518260400151836060015184608001518560a001519650965096509650965096505091939550919395565b60015481565b600160008154809291906103db9061098b565b91905055506040518060c0016040528060015481526020018581526020018481526020018381526020014281526020018281525060008060015481526020019081526020016000206000820151816000015560208201518160010190816104429190610b7f565b5060408201518160020190816104589190610b7f565b50606082015181600301908161046e9190610b7f565b506080820151816004015560a082015181600501908161048e9190610b7f565b509050506001547f95ad50d6596337460bdce4b8db70313463e0615be9266b573e781327aef44e098585846040516104c893929190610c51565b60405180910390a250505050565b6000604051905090565b600080fd5b600080fd5b6000819050919050565b6104fd816104ea565b811461050857600080fd5b50565b60008135905061051a816104f4565b92915050565b600060208284031215610536576105356104e0565b5b60006105448482850161050b565b91505092915050565b610556816104ea565b82525050565b600081519050919050565b600082825260208201905092915050565b60005b8381101561059657808201518184015260208101905061057b565b60008484015250505050565b6000601f19601f8301169050919050565b60006105be8261055c565b6105c88185610567565b93506105d8818560208601610578565b6105e1816105a2565b840191505092915050565b600060c082019050610601600083018961054d565b818103602083015261061381886105b3565b9050818103604083015261062781876105b3565b9050818103606083015261063b81866105b3565b905061064a608083018561054d565b81810360a083015261065c81846105b3565b9050979650505050505050565b600060208201905061067e600083018461054d565b92915050565b600080fd5b600080fd5b7f4e487b7100000000000000000000000000000000000000000000000000000000600052604160045260246000fd5b6106c6826105a2565b810181811067ffffffffffffffff821117156106e5576106e461068e565b5b80604052505050565b60006106f86104d6565b905061070482826106bd565b919050565b600067ffffffffffffffff8211156107245761072361068e565b5b61072d826105a2565b9050602081019050919050565b82818337600083830152505050565b600061075c61075784610709565b6106ee565b90508281526020810184848401111561077857610777610689565b5b61078384828561073a565b509392505050565b600082601f8301126107a05761079f610684565b5b81356107b0848260208601610749565b91505092915050565b600080600080608085870312156107d3576107d26104e0565b5b600085013567ffffffffffffffff8111156107f1576107f06104e5565b5b6107fd8782880161078b565b945050602085013567ffffffffffffffff81111561081e5761081d6104e5565b5b61082a8782880161078b565b935050604085013567ffffffffffffffff81111561084b5761084a6104e5565b5b6108578782880161078b565b925050606085013567ffffffffffffffff811115610878576108776104e5565b5b6108848782880161078b565b91505092959194509250565b7f436572746966696361746520646f6573206e6f742065786973742e0000000000600082015250565b60006108c6601b83610567565b91506108d182610890565b602082019050919050565b600060208201905081810360008301526108f5816108b9565b9050919050565b7f4e487b7100000000000000000000000000000000000000000000000000000000600052602260045260246000fd5b6000600282049050600182168061094357607f821691505b602082108103610956576109556108fc565b5b50919050565b7f4e487b7100000000000000000000000000000000000000000000000000000000600052601160045260246000fd5b6000610996826104ea565b91507fffffffffffffffffffffffffffffffffffffffffffffffffffffffffffffffff82036109c8576109c761095c565b5b600182019050919050565b60008190508160005260206000209050919050565b60006020601f8301049050919050565b600082821b905092915050565b600060088302610a357fffffffffffffffffffffffffffffffffffffffffffffffffffffffffffffffff826109f8565b610a3f86836109f8565b95508019841693508086168417925050509392505050565b6000819050919050565b6000610a7c610a77610a72846104ea565b610a57565b6104ea565b9050919050565b6000819050919050565b610a9683610a61565b610aaa610aa282610a83565b848454610a05565b825550505050565b600090565b610abf610ab2565b610aca818484610a8d565b505050565b5b81811015610aee57610ae3600082610ab7565b600181019050610ad0565b5050565b601f821115610b3357610b04816109d3565b610b0d846109e8565b81016020851015610b1c578190505b610b30610b28856109e8565b830182610acf565b50505b505050565b600082821c905092915050565b6000610b5660001984600802610b38565b1980831691505092915050565b6000610b6f8383610b45565b9150826002028217905092915050565b610b888261055c565b67ffffffffffffffff811115610ba157610ba061068e565b5b610bab825461092b565b610bb6828285610af2565b600060209050601f831160018114610be95760008415610bd7578287015190505b610be18582610b63565b865550610c49565b601f198416610bf7866109d3565b60005b82811015610c1f57848901518255600182019150602085019450602081019050610bfa565b86831015610c3c5784890151610c38601f891682610b45565b8355505b6001600288020188555050505b505050505050565b60006060820190508181036000830152610c6b81866105b3565b90508181036020830152610c7f81856105b3565b90508181036040830152610c9381846105b3565b905094935050505056fea26469706673582212209738167a093a7bcbc9787516d4c28e9b5811586fbd9837b9e4f0de3e517d0bf564736f6c634300081c0033",
  "linkReferences": {},
  "deployedLinkReferences": {}
}